:020000040800F2
:100000006811002045010008D1320008D3320008F1
:10001000D7320008DB320008DF32000800000000A1
:10002000000000000000000000000000E3320008B3
:10003000E532000800000000E7320008E93200085D
:100040005F0100085F0100085F0100085F01000810
:100050005F0100085F0100085F0100085F01000800
:100060005F0100085F0100085F0100085F010008F0
:100070005F0100085F0100085F0100085F010008E0
:100080005F0100085F0100085F0100085F010008D0
:100090005F0100085F0100085F0100085F010008C0
:1000A0005F0100085F0100085F0100085F010008B0
:1000B0005F0100085F0100085F0100085F010008A0
:1000C0005F0100085F0100085F0100085F01000890
:1000D0005F010008E53400080B3900083B3D0008CB
:1000E0005F0100085F0100085F0100085F01000870
:1000F0005F0100085F0100085F0100085F01000860
:100100005F0100085F0100085F0100085F0100084F
:10011000874300085F010008134700085F010008DB
:100120005F0100085F0100085F0100085F0100082F
:10013000DFF80CD006F0B4F9004800479F2C000807
:10014000681100200648804706480047FEE7FEE7A2
:10015000FEE7FEE7FEE7FEE7FEE7FEE7FEE7FEE777
:1001600047020008310100080CB500200190009002
:100170006C48006840F480306A49086000BF6948F4
:10018000006800F4003000900198401C0190009835
:1001900018B90198B0F5A06FF1D16248006800F479
:1001A000003010B10120009001E000200090009884
:1001B000012843D15C48006840F010005A490860AB
:1001C0000846006820F0030008600846006840F018
:1001D0000200086053484068524948600846406839
:1001E00048600846406840F48060486008464068BF
:1001F00020F47C1048600846406840F4E8104860ED
:100200000846006840F08070086000BF45480068FC
:1002100000F000700028F9D04248406820F0030048
:10022000404948600846406840F00200486000BF0E
:100230003C48406800F00C000828F9D10CBD10B50E
:10024000FFF792FF10BD10B53648006840F001007E
:1002500034490860084640683449084031494860DC
:1002600008460068324908402E4908600846006880
:1002700020F4802008600846406820F4FE004860B2
:100280004FF41F008860FFF7DAFF4FF00060294944
:10029000086010BD10B5002100200022214B5B68D2
:1002A00003F00C0121B1042906D0082928D107E068
:1002B000214B224C236027E01F4B204C236023E07E
:1002C000184B5B6803F47010164B5B6803F48032C4
:1002D000022303EB904022B9194B4343174C236090
:1002E0000DE0104B5B6803F4003323B1144B434320
:1002F000124C236003E0104B4343104C236003E097
:100300000D4B0E4C236000BF00BF064B5B68C3F370
:1003100003130C4CE15C094B1B68CB40074C23607A
:1003200010BD000000100240002002400000FFF855
:10033000FFFFF6FE08ED00E000127A00000000204A
:1003400000093D000400002031490143314A116099
:10035000704770B5002100230F22C47804B32D4CE0
:10036000246804F4E064C4F5E064210AC1F10403E4
:10037000CA40447804FA03F1847814402143090107
:10038000254C0678A155047804F01F050124AC40E3
:1003900005786D11AD0005F1E025C5F8004109E0D3
:1003A000047804F01F050124AC401C4D067876113A
:1003B00045F8264070BD1A4A0A400243154B1B1FE0
:1003C0001A60704739B1134A121D12680243114B6B
:1003D0001B1D1A6006E00F4A121D126882430D4B66
:1003E0001B1D1A607047042808D14FF0E0210969ED
:1003F00041F004014FF0E022116107E04FF0E021ED
:10040000096921F004014FF0E022116170470000FA
:100410000000FA050CED00E000E400E080E100E0FF
:1004200080FFFF1F10B50446FA48844208D101211D
:10043000401501F025FA0021601501F021FA17E0BE
:10044000F548844208D10121001501F019FA002174
:10045000201501F015FA0BE0F048844208D1012183
:10046000C80301F00DFA00214FF4004001F008FA32
:1004700010BD30B50246002000235068E84C2040F3
:100480000D790C6844EA0524204350609068E54CDF
:100490002040D1E902542C434D7944EA45042043DD
:1004A0009060D06A20F470000C7C641EE4B2234398
:1004B00040EA0350D06230BD0021016001714171FA
:1004C0008160C16001210174704721B1826842F0EE
:1004D0000102826003E0826822F0010282607047BC
:1004E00021B1826842F48072826003E0826822F463
:1004F00080728260704710B50023CBB21AB1446895
:100500001C43446002E044689C43446010BD816821
:1005100041F0080181607047014600208A6802F0BE
:1005200008020AB1012000E000207047816841F014
:10053000040181607047014600208A6802F00402CD
:100540000AB1012000E00020704721B1826842F426
:10055000A002826003E0826822F4A00282607047F9
:10056000014600208A6802F480020AB1012000E0FE
:100570000020704710B50A4600210023416821F48D
:100580006041531E41EA4331416010BD21B14268D0
:1005900042F40062426003E0426822F4006242607A
:1005A0007047F0B504460D4600200021092D11DDED
:1005B000E068A5F10A0606EB4607072606FA07F1EA
:1005C0008843A5F10A0606EB460603FA06F108433E
:1005D000E0600CE0206905EB4507072606FA07F105
:1005E000884305EB450603FA06F108432061072A14
:1005F0000FDA606B561E06EB86071F2606FA07F118
:100600008843561E06EB860605FA06F1084360632A
:1006100022E00D2A0FDA206BD61F06EB86071F2675
:1006200006FA07F18843D61F06EB860605FA06F19F
:100630000843206310E0E06AA2F10D0606EB86078E
:100640001F2606FA07F18843A2F10D0606EB86067F
:1006500005FA06F10843E062F0BD21B1826842F478
:100660008012826003E0826822F480128260704708
:100670000146C86C80B2704766484C3000687047CD
:1006800021B1426842F48062426003E0426822F491
:1006900080624260704721B1426842F480524260F9
:1006A00003E0426822F48052426070470A4600210B
:1006B000816821F4E04111438160704721B1826873
:1006C00042F40042826003E0826822F400428260C9
:1006D000704721B1826842F40212826003E08268AE
:1006E00022F4021282607047014600208A6802F4F8
:1006F00000120AB1012000E000207047F0B5044666
:100700001546002000220026092911DDE068A1F12C
:100710000A0707EB470C072707FA0CF29043A1F1F1
:100720000A0707EB470703FA07F21043E0600CE003
:10073000206901EB410C072707FA0CF2904301EB0B
:10074000410703FA07F210432061A06BC0F3015682
:10075000EF1C06F1010CA7EB0C0707EB870C1F271A
:1007600007FA0CF29043EF1C06F1010CA7EB0C0703
:1007700007EB870701FA07F21043A063F0BD10B53D
:100780000A4600210023816B21F44011531E41EAE7
:100790000351816310BD08B5002300930090009BB6
:1007A0000B440093009B1A6008BD08B50246002068
:1007B0000090009201F12800009B184400900098DE
:1007C000006880B208BD0A4600214168164B1940F6
:1007D0001143416070474162826270470A460021BE
:1007E000416821F01F0111434160704740B1094940
:1007F0000831096841F40001064A0832116007E037
:1008000004490831096821F40001024A08321160E4
:10081000704700000024014000280140003C0140D6
:10082000FFFEF0FFFDF7F1FFFFFD3FFF0246002056
:1008300013680B400BB1012000E000207047CA4351
:100840000260704770B502460020002300240B129E
:100850005568CEB205EA060415681D4015B10CB105
:10086000012000E0002070BD00220A12D343036083
:100870007047000010B5012001F01CF8002001F0C5
:1008800019F810BD2A49086070472949091F0860F6
:100890007047274984310860704701460020254A87
:1008A00010884FF67F4210400843224A108070475C
:1008B000014600201F4A10884FF6807210400843FE
:1008C0001C4A1080704708B500220092194A2C3A41
:1008D0000092009A02440092009A116008BD08B587
:1008E00001460020009013482C38009000980844DE
:1008F00000900098008808BD0D489C300068C0B288
:1009000070470C480830008840F001000949083160
:10091000088070470648A0300068C0B2704705489C
:100920000830008840F00200024908310880704712
:1009300004860D422C6C004001684FF6FE72114097
:1009400001600021016041608160C1608D49884281
:1009500008D18C490839496841F00F01894A083AA1
:1009600051608AE087491431884208D185490839A5
:10097000496841F0F001834A083A51607DE08149BD
:100980002831884208D17F490839496841F47061AB
:100990007C4A083A516070E07A493C31884208D17B
:1009A00078490839496841F47041764A083A5160FB
:1009B00063E074495031884208D172490839496866
:1009C00041F470216F4A083A516056E06D49643134
:1009D000884208D16B490839496841F47001694A75
:1009E000083A516049E067497831884208D1654941
:1009F0000839496841F07061624A083A51603CE048
:100A00006149884206D1011F096841F00F01021FA8
:100A1000116032E05C491431884208D15A49091FFB
:100A2000096841F0F001584A121F116025E056494B
:100A30002831884208D15449091F096841F470617E
:100A4000514A121F116018E04F493C31884208D1C9
:100A50004D49091F096841F470414B4A121F11604A
:100A60000BE049495031884207D14749091F0968BD
:100A700041F47021444A121F1160704710B50022E2
:100A8000026847F6F0739A430C6A8B6823430C693B
:100A900023434C6923438C692343CC6923434C6A29
:100AA00023438C6A23431A430260CB6843600B687C
:100AB00083604B68C36010BD0021016041608160AC
:100AC000C160016141618161C16101624162816214
:100AD000704721B1026842F00102026004E002683E
:100AE0004FF6FE731A40026070471AB103680B4359
:100AF000036002E003688B43036070474160704706
:100B00000146486880B2704701460020002201F08B
:100B100080531BB11C4B083B1A6802E0194B083B81
:100B20001A6802EA01030BB1012000E000207047BF
:100B300000F0805119B11449091F086002E0114901
:100B400008394860704701460020002201F08053B8
:100B50001BB10D4B083B1A6802E00A4B083B1A68B0
:100B600002EA01030BB1012000E00020704700F011
:100B7000805119B10449091F086002E00149083990
:100B80004860704708000240080402400146002007
:100B9000FE4A106800F03800084310607047FB49B7
:100BA000096821F00801F94A1160114609680143FA
:100BB00011607047F549096821F01001F34A11608E
:100BC00011460968014311607047F148EF494860D8
:100BD000F04848607047EE48EC494860ED4848608E
:100BE0007047EA48006940F08000E84908617047B2
:100BF000E648006940F08000E4490861704704203D
:100C0000E249C96801F0010109B101200EE0DF49A4
:100C1000C96801F0040109B1022007E0DB49C96895
:100C200001F0100109B1032000E00420704700B575
:100C300002460423FFF7E3FF034603E0FFF7DFFF6D
:100C40000346521E012B01D1002AF7D102B9052318
:100C5000184600BD30B5044604254FF43020FFF798
:100C6000E6FF0546042D17D1C848006940F0020090
:100C7000C649086108464461006940F040000861C7
:100C80004FF43020FFF7D3FF0546C048006941F616
:100C9000FD710840BD490861284630BD10B50424E7
:100CA0004FF43020FFF7C3FF0446042C16D1B74899
:100CB000006940F00400B54908610846006940F049
:100CC000400008614FF43020FFF7B1FF0446AF4801
:100CD000006941F6FB710840AC490861204610BD2F
:100CE00000B502460423FFF78AFF034603E0FFF73F
:100CF00086FF0346521E012B01D1002AF7D102B90B
:100D00000523184600BD10B504244FF43020FFF72A
:100D1000E7FF0446042C16D19C48006940F004000B
:100D20009A4908610846006940F0400008614FF4A4
:100D30003020FFF7D5FF04469448006941F6FB7167
:100D4000084092490861204610BD00208F49C969BA
:100D500001F0020109B1012000E00020704730B528
:100D6000A5250424FFF7F1FF00B100254FF4302042
:100D7000FFF75DFF0446042C3AD18548834988601B
:100D8000844888600846006940F0200008610846F1
:100D9000006940F0400008614FF43020FFF747FF42
:100DA0000446042C1BD17948006941F6DF710840E4
:100DB000764908610846006940F0100008617648ED
:100DC0000580E002FFF733FF0446052C10D06F4882
:100DD000006941F6EF7108406C49086108E0052C94
:100DE00006D06A48006941F6EF710840674908611A
:100DF000204630BD78B506460C46042500200090FC
:100E0000E802FFF714FF0546042D24D15F4800696E
:100E100040F001005D4908613480E802FFF707FFF8
:100E20000546042D10D1B01C0090200C00990880BC
:100E3000E802FFF7FCFE05465448006941F6FE71E2
:100E400008405249086106E05048006941F6FE71C9
:100E500008404E490861284678BD70B504460D46E5
:100E60000426F002FFF7E3FE0646042E11D14748A0
:100E7000006940F00100454908612580F002FFF754
:100E8000D6FE06464148006941F6FE7108403F49DA
:100E90000861304670BD70B505460E460424E00278
:100EA000FFF7C5FE0446042C17D13948374988603E
:100EB000384888600846006940F0100008612E80BC
:100EC000E002FFF7B4FE0446052C06D02F48006967
:100ED00041F6EF7108402D490861204670BD2DE9AB
:100EE000F04304464FF6FF763746B046B146042538
:100EF000E443E6B2C4F30727C4F307484FEA146992
:100F0000E802FFF794FE0546042D49D120481F4909
:100F10008860204888600846006940F01000086139
:100F2000FF2E06D01C4808300680E802FFF77FFE3F
:100F30000546042D08D1FF2F06D017480A30078038
:100F4000E802FFF774FE0546042D0AD1B8F1FF0F41
:100F500007D011480C30A0F80080E802FFF767FEC8
:100F60000546042D0AD1B9F1FF0F07D00A480E300B
:100F7000A0F80090E802FFF75AFE0546052D0FD0B5
:100F80000248006941F6EF71084007E00020024086
:100F900023016745AB89EFCD00F8FF1F6649086163
:100FA0002846BDE8F08330B5054604244FF43020D0
:100FB000FFF73DFE0446042C41D160485E4988603D
:100FC0005F4888600846006940F0200008610846D4
:100FD000006940F0400008614FF43020FFF727FE21
:100FE0000446042C22D15448006941F6DF710840C0
:100FF000514908610846006940F0100008611DB1C0
:1010000000205049088002E0A5204E4908804FF496
:101010003020FFF70CFE0446052C10D0464800692E
:1010200041F6EF7108404449086108E0052C06D0FC
:101030004148006941F6DF7108403F490861204698
:1010400030BDF0B505460E46174604243B483A49E4
:1010500088603B488860E002FFF7E9FD0446042C05
:1010600019D13548006940F010003349086147F054
:10107000F800304328433349891C0880E002FFF719
:10108000D6FD0446052C06D02B48006941F6EF71C9
:101090000840294908612046F0BD2748C0698008FA
:1010A00070472548006A704700202349096801F00D
:1010B000200109B1012000E00020704729B11E4A3B
:1010C000126902431C4B1A6104E01B4A12698243F5
:1010D000194B1A61704701460020012908D1164AB0
:1010E000D26902F001020AB1012008E0002006E006
:1010F000114AD2680A400AB1012000E0002070477E
:101100000D49C860704704200B49C96801F001010E
:1011100009B101200EE00849C96801F0040109B1D4
:10112000022007E00449C96801F0100109B1032059
:1011300000E00420704700000020024023016745C2
:10114000AB89EFCD00F8FF1F10B50446CC488442B0
:1011500008D10121042000F093FB0021042000F0BD
:101160008FFB46E0C748844208D10121082000F0E7
:1011700087FB0021082000F083FB3AE0C24884424C
:1011800008D10121102000F07BFB0021102000F08D
:1011900077FB2EE0BD48844208D10121202000F0D9
:1011A0006FFB0021202000F06BFB22E0B848844256
:1011B00008D10121402000F063FB0021402000F015
:1011C0005FFB16E0B348844208D10121802000F083
:1011D00057FB0021802000F053FB0AE0AE48844218
:1011E00007D10121801500F04BFB0021A01500F074
:1011F00047FB10BD10B50121084600F041FB00215E
:10120000012000F03DFB10BD2DE9F0410246002514
:101210000026002000230024002791F803C00CF0D2
:101220000F0591F803C00CF0100CBCF1000F03D0B7
:1012300091F802C04CEA050591F800C0BCF1000F1E
:1012400031D0146800202BE04FF0010C0CFA00F3B1
:10125000B1F800C00CEA03069E4220D183004FF093
:101260000F0C0CFA03F7BC4305FA03FC4CEA040428
:1012700091F803C0BCF1280F06D14FF0010C0CFA15
:1012800000FCC2F814C00AE091F803C0BCF1480F9A
:1012900005D14FF0010C0CFA00FCC2F810C0401C44
:1012A0000828D1D31460B1F800C0BCF1FF0F34DDC1
:1012B000546800202EE000F1080C4FF0010808FAF5
:1012C0000CF3B1F800C00CEA03069E4221D1830062
:1012D0004FF00F0C0CFA03F7BC4305FA03FC4CEA81
:1012E000040491F803C0BCF1280F05D100F1080CEB
:1012F00008FA0CF8C2F8148091F803C0BCF1480F4A
:1013000007D100F1080C4FF0010808FA0CF8C2F8F8
:101310001080401C0828CED35460BDE8F0814FF601
:10132000FF710180022181700421C1707047024663
:10133000002093680B400BB1012000E000207047B3
:101340000146886880B2704702460020D3680B408F
:101350000BB1012000E0002070470146C86880B250
:10136000704701617047416170470AB1016100E057
:1013700041617047C16070474FF480320A43826117
:101380008161826182698269704702460020434B15
:1013900018684FF68073184040EA021008433F4B2C
:1013A000186070473E49C8617047F0B50A4600238F
:1013B00000240021002500F00046B6F1004F02D1C4
:1013C000364EF16901E0354E7168C0F3034583B2D2
:1013D00000F44016B6F5401F08D121F070612F4E81
:1013E000766826F070662D4F7E6012E000F480165D
:1013F000B6F5801F06D1032606FA05F4A14341F095
:10140000706106E0460D360103FA06F6B14341F07D
:10141000706122B1460D360103FA06F6314300F041
:101420000046B6F1004F02D11C4EF16101E01B4EA7
:101430007160F0BD30B500228B071C0F0F2303FA3B
:1014400004F2164B08338C1053F824309343134C9A
:1014500008348D1044F8253023468C1053F824307E
:101460008C07240F00FA04F423430C4C08348D102D
:1014700044F8253030BD0A49DC310860704700006F
:1014800000080140000C0140001001400014014020
:1014900000180140001C01400020014000000140F4
:1014A0000000204210B50121080700F0F6F90021E4
:1014B0004FF0805000F0F1F910BD2A4908627047E2
:1014C00028490861704701460020274A106820F02B
:1014D000E0000843106070472249A031086070475F
:1014E00010B502460020204B186820F0030010437E
:1014F00018601E4B1B6843F004031C4C2360012939
:1015000001D130BF00E020BF184B1B6823F004035B
:10151000164C236010BD1448006840F004001249C6
:1015200008600846006840F0020008600F48006844
:1015300040F004000D49086000BF00BF30BF704795
:1015400001460020084A52680A400AB1012000E022
:10155000002070470449096841EA8001024A11608D
:101560007047000000000E420070004010ED00E0E7
:10157000DF48006840F00100DD4908600846406827
:10158000DC490840DA49486008460068DA49084002
:10159000D74908600846006820F4802008600846A3
:1015A000406820F4FE0048604FF41F0088607047D8
:1015B000CF49096821F48031CD4A1160114609688C
:1015C00021F480211160B0F5803F03D0B0F5802F69
:1015D0000ED106E0C649096841F48031C44A116061
:1015E00007E0C349096841F4A021C14A116000E045
:1015F00000BF00BF704710B5014600220023002045
:101600004A11012A02D1BA4C236806E0022A02D10B
:10161000B74C236A01E0B64C636A01F01F02012453
:1016200094401C400CB1012000E0002010BD38B5F2
:10163000002000900024002500BF3120FFF7DBFFD1
:1016400005460098401C00900098B0F5A06F01D0AE
:10165000002DF2D03120FFF7CEFF08B1012400E0C9
:101660000024204638BD01460020A14A106820F021
:10167000F80040EAC10010607047A0490860704758
:10168000024600209A4B586820F47C1042EA01037D
:101690001843974B58607047984908667047014651
:1016A0000020934A506820F00300084350607047C0
:1016B0008F48406800F00C007047014600208C4ABB
:1016C000506820F0F0000843506070470146002049
:1016D000874A506820F4E060084350607047014634
:1016E0000020834A506820F4605040EAC1005060F6
:1016F000704729B17E4A527A02437D4B5A7204E008
:101700007B4A527A82437A4B5A7270477B49D8316E
:101710000860704701460020754A506820F4404038
:101720000843506070470021714A20321170704A9E
:1017300082F82010012802D004280AD104E00121F7
:101740006B4A2032117005E00521694A2032117080
:1017500000E000BF00BF70476949086070476449F6
:10176000096A0143624A1162704765494439086059
:10177000704730B500210022002400235C4D6D68C5
:1017800005F00C0121B1042905D0082923D105E079
:101790005C4D056022E05B4D05601FE0544D6D68B7
:1017A00005F47012524D6D6805F48034022505EB86
:1017B00092421CB9544D554305600BE04C4D6D6889
:1017C00005F400351DB1504D5543056002E04D4D07
:1017D0005543056002E04B4D056000BF00BF444D1E
:1017E0006D6805F0F0010909484D6B5C0568DD4046
:1017F00045603F4D6D6805F4E061090A434D6B5C3F
:101800004568DD4085603A4D6D6805F46051C90A50
:101810003E4D6B5C4568DD40C560354D6D6805F437
:101820004041890B3A4D6B5CC568B5FBF3F505612A
:1018300030BD29B12E4A526902432D4B5A6104E052
:101840002B4A526982432A4B5A61704729B1284A70
:1018500092690243264B9A6104E0254A92698243C9
:10186000234B9A61704729B1214AD2690243204B28
:10187000DA6104E01E4AD26982431D4BDA61704787
:1018800029B11B4AD2680243194BDA6004E0184AB6
:10189000D2688243164BDA60704729B1144A126944
:1018A0000243134B1A6104E0114A12698243104B40
:1018B0001A61704712494039086070470F49C8647F
:1018C00070470B49C87170470948406A40F0807002
:1018D00007494862704701460020054A92680A405D
:1018E0000AB1012000E0002070470149887270476A
:1018F000001002400000FFF8FFFFF6FE0000424229
:101900008004424200127A0000093D0014000020C9
:101910002400002029B1504A128802434E4B1A80FD
:1019200004E04D4A128882434B4B1A8070474A4864
:10193000001D008840F010004749091D08807047CD
:101940004548001D00884FF6EF7108404249091DC7
:1019500008807047002140481C300188001F008823
:1019600041EA0040704700B50246FFF7E0FF100C67
:10197000394918310880091D0A80FFF7E1FF00BDD1
:1019800000B50246FFF7D3FFC2F3034032490831E6
:101990000880091D0A80FFF7D3FF00BD00B502468D
:1019A000FFF7C5FF100C2C4920310880091D0A8063
:1019B000FFF7C6FF00BD002027491031098809073D
:1019C000080B2549143109880843704700BF224895
:1019D000001D008800F020000028F8D070471E4845
:1019E000001D00884FF6F77108401B49091D08804B
:1019F00000BF1948001D008800F008000028F8D03A
:101A0000704701460020144A121D12880A400AB18C
:101A1000012000E0002070470F49091D098881431B
:101A20000D4A121D11807047014600200A4A121DFE
:101A300012880A40D0B2084A12880A4012B108B18E
:101A4000012000E0002070470349091D09888143F7
:101A5000014A121D118070470028004010B504464D
:101A6000FE48844208D10121C014FFF709FF00217C
:101A7000E014FFF705FFC4E0B4F1804F08D1012165
:101A80000846FFF70AFF00210120FFF706FFB8E034
:101A9000F348844208D101210220FFF7FEFE002115
:101AA0000220FFF7FAFEACE0EE48844208D10121A3
:101AB0000420FFF7F2FE00210420FFF7EEFEA0E075
:101AC000E948844208D101210820FFF7E6FE002101
:101AD0000820FFF7E2FE94E0E448844208D10121A7
:101AE0001020FFF7DAFE00211020FFF7D6FE88E075
:101AF000DF48844208D101212020FFF7CEFE0021DB
:101B00002020FFF7CAFE7CE0DA48844208D1012198
:101B10004014FFF7B5FE00216014FFF7B1FE70E03E
:101B2000D548844209D10121C804FFF7A9FE00214C
:101B30004FF40020FFF7A4FE63E0D048844209D1AF
:101B400001210805FFF79CFE00214FF48010FFF7EC
:101B500097FE56E0CA48844209D101214805FFF7A3
:101B60008FFE00214FF40010FFF78AFE49E0C548C0
:101B7000844208D101214020FFF78FFE0021402040
:101B8000FFF78BFE3DE0C048844208D10121802050
:101B9000FFF783FE00218020FFF77FFE31E0BB4886
:101BA000844208D101218015FFF777FE0021A0159E
:101BB000FFF773FE25E0B648844209D101210804ED
:101BC000FFF75EFE00214FF48030FFF759FE18E06A
:101BD000B048844209D101214804FFF751FE002199
:101BE0004FF40030FFF74CFE0BE0AB48844208D1C5
:101BF00001218804FFF744FE00214FF48020FFF705
:101C00003FFE10BD00220288944B98420ED0994BA3
:101C100098420BD0B0F1804F08D0914B984205D03C
:101C2000904B984202D0904B984204D14FF68F735C
:101C30001A404B881A438D4B984207D08C4B9842E0
:101C400004D04FF6FF431A40CB881A4302808B889A
:101C500083850B880385814B98420BD0854B984236
:101C600008D08B4B984205D08A4B984202D08A4BC1
:101C7000984201D10B7A038601238382704770B5A5
:101C8000002400220023058C4FF6FE7635400584A3
:101C9000028C8388048B4FF68F752C40B51E2C4028
:101CA0000D882C43751E2A400D892A434D882A43EE
:101CB0006A4DA8420BD06F4DA84208D0744DA8427F
:101CC00005D0744DA84202D0734DA84213D14FF6EF
:101CD000F7752A404D892A434FF6FB752A408D88B7
:101CE0002A434FF6FF652B404FF6FF552B408D8959
:101CF0002B43CD892B4383800483CD888586028442
:101D000070BD70B5002400220023058C4FF6EF76DD
:101D100035400584028C8388048B48F6FF752C407F
:101D20004FF6FF452C400D884FF6FF7606EA052555
:101D30002C434FF6DF752A400D8906EA05152A4324
:101D40004D8806EA05152A43444DA84202D0494D64
:101D5000A8421DD14FF67F752A404D894FF6FF7678
:101D600006EA05152A434FF6BF752A408D8806EA14
:101D700005152A434FF6FF352B404FF2FF752B40D8
:101D80008D8906EA85052B43CD8906EA85052B4317
:101D900083800483CD880587028470BD70B50024DC
:101DA00000220023058C4FF6FF6635400584028C27
:101DB0008388848B4FF68F752C404FF6FC752C4032
:101DC0000D882C434FF6FF552A400D894FF6FF76BC
:101DD00006EA05252A434D8806EA05252A431F4DB4
:101DE000A84202D0234DA8421DD14FF2FF752A40D0
:101DF0004D894FF6FF7606EA05252A434FF6FF3553
:101E00002A408D8806EA05252A434EF6FF752B40A9
:101E10004DF6FF752B408D8906EA05152B43CD89BC
:101E200006EA05152B4383808483CD888587028449
:101E300070BD70B5002200230024058C4EF6FF769D
:101E400035400584038C8488828B48F6FF752A40D0
:101E50004FF6FF452A400D8820E00000002C01408D
:101E60000004004000080040000C0040001000404A
:101E70000014004000340140004C0140005001407B
:101E80000054014000180040001C004000200040A9
:101E90000040014000440140004801404FF6FF76F9
:101EA00006EA05252A434DF6FF752B400D8906EA03
:101EB00005352B434D8806EA05352B43FA4DA842DC
:101EC00002D0FA4DA84208D14BF6FF752C408D89FF
:101ED0004FF6FF7606EA85152C4384808283CD88F1
:101EE000A0F84050038470BD828B4FF2FF331A403C
:101EF0008283828B4FF6FF7303EA01231A438283A6
:101F00007047F0B50C461546002200210026078CCC
:101F10004EF6FF7C07EA0C070784828B018C4FF694
:101F2000FF7707EA043640F6FF473A404FF6FF775F
:101F300007EA05273A434FF6FF7707EA03373A43A4
:101F4000D94FB8420ED0D94FB8420BD0B0F1804F24
:101F500008D0D74FB84205D0D64FB84202D0D64F9E
:101F6000B84206D14DF6FF77394046F480573943E1
:101F700005E047F6FF57394044F4805739438283E0
:101F80000184F0BD828B4FF6F3731A408283828BFB
:101F90000A4382837047F0B50C46154600220021A3
:101FA0000026078C4FF6FF6C07EA0C070784828B2C
:101FB000018C4FF6FF7707EA04264FF60C773A407C
:101FC0004FF6FF7707EA03172F433A43B64FB8425D
:101FD0000ED0B64FB8420BD0B0F1804F08D0B44FFE
:101FE000B84205D0B34FB84202D0B34FB84206D181
:101FF0004FF6FF57394046F48077394305E04FF2FA
:10200000FF57394044F48077394382830184F0BD1F
:10201000028B4FF2FF331A400283028B4FF6FF739D
:1020200003EA01231A4302837047F0B50C461546B4
:10203000002200210026078C4FF6EF7C07EA0C07F0
:102040000784028B018C4FF6FF7707EA041640F6EF
:10205000FF473A404FF6FF7707EA03373A434FF618
:10206000FF7707EA05273A438F4FB8420ED08F4FCC
:10207000B8420BD0B0F1804F08D08D4FB84205D098
:102080008C4FB84202D08C4FB84206D14FF6DF7762
:10209000394046F01007394305E04FF65F77394085
:1020A00044F01007394302830184F0BD028B4FF6E0
:1020B000F3731A400283028B0A4302837047F0B520
:1020C0000C46154600220021068C4FF6FE773E4056
:1020D0000684028B018C4FF60C7632407E1C06EA99
:1020E00003162E433243704EB0420ED06F4EB042B4
:1020F0000BD0B0F1804F08D06D4EB04205D06D4E80
:10210000B04202D06C4EB04206D14FF6FD7631405F
:1021100044F00106314305E04FF6F576314044F0D6
:102120000106314302830184F0BD70B505460C46BB
:102130005D4885420ED05D4885420BD0B5F1804F99
:1021400008D05B48854205D05A48854202D05A489B
:10215000854200D100E000BF208850B92389A288C1
:1021600061882846FFF7ABFFE1882846FFF79EFF0E
:1021700025E0208804280AD12389A288618828467E
:10218000FFF753FFE1882846FFF742FF17E020885A
:1021900008280AD12389A28861882846FFF7FBFE18
:1021A000E1882846FFF7EEFE09E02389A2886188CE
:1021B0002846FFF7A6FEE1882846FFF795FE70BD8A
:1021C0002DE9F04105460C4600260127608808B934
:1021D000022600E00026A088012801D1022700E0A5
:1021E00001272088A0B92389A28861882846FFF7A3
:1021F00066FFE1882846FFF759FF23893A463146B2
:102200002846FFF712FFE1882846FFF701FF13E099
:102210002389A28861882846FFF707FFE1882846BE
:10222000FFF7F6FE23893A4631462846FFF747FF77
:10223000E1882846FFF73AFFBDE8F0810A884B881D
:102240001A438B881A43CB881A430B891A434B894C
:102250001A438B891A43A0F8442070474FF6FF7148
:10226000818000210180C18041800172704700217E
:10227000018041808180C180018141818181C18152
:102280007047002101804180012181800021C180AF
:10229000018170470021018041808180C1800181DE
:1022A0004181818170470000002C014000340140D1
:1022B0000004004000080040000C004021B10288EA
:1022C00042F00102028004E002884FF6FE731A40D9
:1022D0000280704731B1B0F8442042F40042A0F8C7
:1022E000442005E0B0F84420C2F30E02A0F84420D8
:1022F00070471AB183890B43838102E083898B4342
:10230000838170478182704741EA0203A0F8483018
:1023100070471AB183890B43838102E083898B4321
:102320008381704701894FF6F8721140018170472F
:102330000A46002101894FF68F731940114301812C
:10234000704730B504460D4629462046FFF7F0FF9A
:10235000208940F00700208130BD2DE9F04104467E
:102360000D4616461F46602D06D13B4601223146DA
:102370002046FFF75AFE05E03B4601223146204643
:10238000FFF79DFE29462046FFF7D2FF208940F047
:1023900007002081BDE8F08130B50C46002101899D
:1023A000C9B24FF6FF7505EA0325154325432943B6
:1023B000018130BD2DE9F04105460E46174698468D
:1023C000002443463A4631462846FFF7E5FF2C896C
:1023D0004FF6F870044044F007044FF68F70044045
:1023E00044F070042C81BDE8F081F0B504460D4640
:1023F00016461F463B46324629462046FFF7CCFF8D
:10240000208940F480402081F0BD018582827047A0
:102410000A46002101884FF68F731940114301804D
:102420007047F0B50C4615461E46002100220023D9
:102430000189028B038C4FF6F877394021434FF620
:10244000FC473A4040F201173A434FF6DD773B40F4
:102450004FF6FF7707EA06172F433B4301810283BC
:102460000384F0BD0A460021018B4FF68F7319409B
:102470001143018370470A460021018B48F6FF7320
:1024800019404FF6FF7303EA022319430183704793
:102490000A460021818B4FF68F73194011438183C7
:1024A00070470A460021818B48F6FF7319404FF6AA
:1024B000FF7303EA022319438183704721B1028825
:1024C00042F08002028004E002884FF67F731A40D7
:1024D0000280704721B1828842F00402828004E0C9
:1024E00082884FF6FB731A408280704721B1828840
:1024F00042F00802828004E082884FF6F7731A40A7
:102500008280704721B1828842F00102828004E01B
:1025100082884FF6FE731A40828070470A46002177
:10252000018B4FF6F77319401143018370470A4638
:102530000021018B4FF2FF7319404FF6FF7303EA3E
:1025400002231943018370470A460021818B4FF60D
:10255000F77319401143818370470A460021818B2C
:102560004FF2FF7319404FF6FF7303EA022319433A
:10257000818370470A460021018B4FF6FB73194097
:102580001143018370470A460021018B4FF6FF3348
:1025900019404FF6FF7303EA022319430183704782
:1025A0000A460021818B4FF6FB731940114381834A
:1025B00070470A460021818B4FF6FF3319404FF6D2
:1025C000FF7303EA02231943818370470A460021FF
:1025D000018B4FF67F7319401143018370470A4600
:1025E0000021018BC1F30E014FF6FF7303EA0223B2
:1025F0001943018370470A460021818B4FF67F7390
:1026000019401143818370470A460021818BC1F331
:102610000E014FF6FF7303EA0223194381837047CB
:102620000A460021018C4FF6FD73194011430184C5
:1026300070470A460021018C4FF6F7731940114389
:10264000018470470A460021018C4FF6DF73194060
:102650004FF6FF7303EA02131943018470470A46D9
:102660000021018C4FF67F7319404FF6FF7303EA88
:1026700002131943018470470A460021018C4FF66A
:10268000FF5319404FF6FF7303EA022319430184F5
:1026900070470A460021018C4FF2FF7319404FF634
:1026A000FF7303EA02231943018470470A4600219D
:1026B000018C4DF6FF7319404FF6FF7303EA0233A6
:1026C00019430184704730B5002301248C40A3B224
:1026D000048C9C430484048C02FA01F5ADB22C43B3
:1026E000048430BD30B5002304248C40A3B2048C94
:1026F0009C430484048C02FA01F5ADB22C4304849B
:1027000030BD70B50346002000241846183001255E
:102710008D40ACB21D8CA5431D8409B1082909D197
:1027200000EB6100056825F070050560056815433C
:1027300005600EE00D1FC5F34E052844056825F41D
:10274000E045056005684FF6FF7606EA0226354348
:10275000056070BD21B1028842F00202028004E0EF
:1027600002884FF6FD731A400280704721B102883B
:1027700042F00402028004E002884FF6FB731A4024
:102780000280704721B1828842F08002828004E09A
:1027900082884FF67F731A408280704702884FF616
:1027A000F7731A40028002880A43028070478288C9
:1027B0004FF68F731A40828082880A438280704766
:1027C00002894FF6F8731A40028102890A43028196
:1027D000704702894FF67F731A40028102890A43CB
:1027E0000281704781847047818570478186704778
:1027F0000187704781877047A0F8401070470288B2
:102800004FF6FF431A40028002880A430280704755
:102810000146888E70470146088F70470146888FB1
:1028200070470146B1F8400070470146888C7047F8
:102830000146088D704702460020138A0B400BB1F9
:10284000012000E000207047CA430282704730B583
:102850000246002000230024158A05EA0103958919
:1028600005EA010413B10CB1012000E0002030BDE5
:10287000CA4302827047000010B50446FB488442F8
:1028800009D101218803FEF7FBFF00214FF48040AE
:10289000FEF7F6FF32E0F648844209D101214804F0
:1028A000FEF7FBFF00214FF40030FEF7F6FF25E0B6
:1028B000F048844209D101218804FEF7EEFF00218F
:1028C0004FF48020FEF7E9FF18E0EB48844209D17D
:1028D0000121C804FEF7E1FF00214FF40020FEF7BC
:1028E000DCFF0BE0E548844208D101210805FEF732
:1028F000D4FF00214FF48010FEF7CFFF10BD2DE96B
:10290000F04786B005460E460024A24600BFA14609
:102910000027B08900B100BF2F462C8A4CF6FF700B
:102920000440F08804432C82AC894EF6F310044036
:10293000B08831890843718908430443AC81AC8A6B
:102940004FF6FF400440B0890443AC8201A8FEF773
:1029500010FFC648874202D1DDF810A001E0DDF883
:102960000CA0A88900F4004040B10AEBCA0000EBBB
:102970000A1031684900B0FBF1F807E00AEBCA0021
:1029800000EB0A1031688900B0FBF1F86420B8FB55
:10299000F0F004012009642101FB1089A88900F4EA
:1029A000004040B1322000EBC900B0FBF1F000F074
:1029B0000700044308E0322000EB09106421B0FB5B
:1029C000F1F000F00F0004432C8106B0BDE8F08761
:1029D0004FF41651016000218180C18001810C21DA
:1029E000418100218181704710B502460020108A84
:1029F0004FF2FF0318400B884C8823438C882343F5
:102A0000CC8823431843108210BD002101804180EF
:102A10008180C180704721B1828942F40052828155
:102A200004E082894DF6FF731A4082817047F0B549
:102A30000346002400260025002040F66A17B9420C
:102A400000D100BF1846C1F3421401F01F06012750
:102A500007FA06F5012C01D10C3004E0022C01D15B
:102A6000103000E014301AB107682F43076002E00D
:102A70000768AF430760F0BD1AB1838A0B438382B6
:102A800002E0838A8B4383827047028A4FF6F07399
:102A90001A400282028A0A430282704782894FF2F8
:102AA000FF731A40828182890A438281704721B173
:102AB000828942F00202828104E082894FF6FD732E
:102AC0001A4082817047028A4FF6DF731A400282F1
:102AD000028A0A430282704721B1028A42F480428C
:102AE000028204E0028A4BF6FF731A4002827047AA
:102AF000C1F308028280704701468888C0F308004D
:102B00007047818941F0010181817047028BD2B207
:102B10000283028B42EA012202837047028B02F495
:102B20007F420283028B0A430283704721B1828A6B
:102B300042F02002828204E0828A4FF6DF731A405C
:102B40008282704721B1828A42F01002828204E0C0
:102B5000828A4FF6EF731A408282704721B1828ACF
:102B600042F00802828204E0828A4FF6F7731A402C
:102B70008282704721B1828942F40042828103E05F
:102B80008289C2F30E028281704721B1828A42F4A7
:102B90000062828204E0828A4FF2FF731A408282CE
:102BA0007047828A4FF6FB731A408282828A0A43F8
:102BB0008282704721B1828A42F00202828204E05E
:102BC000828A4FF6FD731A408282704702460020C7
:102BD000B1F5007F00D100BF13880B400BB101207D
:102BE00000E00020704701F40072B2F5007F00D1D0
:102BF00000BFCA430280704770B50246002400231C
:102C00000025002040F66A16B14200D100BFC1F392
:102C1000421501F01F03012606FA03F3012D02D12C
:102C20009689334006E0022D02D1168A334001E036
:102C3000968A33400C12012606FA04F416883440B2
:102C400013B10CB1012000E0002070BD10B50022CE
:102C5000002340F66A14A14200D100BF0A120124E9
:102C60009440A3B2DC43048010BD00000038014052
:102C70000044004000480040004C0040005000402C
:102C800010B588B004462022FEA1684602F0C3FFBA
:102C90001D226946204600F0ACFB08B010BD92B082
:102CA0000025A846002700BFA9460026002400BF33
:102CB00000F016FD00F08EFD01F055FC0221F948F0
:102CC000FEF74FFB01F017FB00F0DDFD00F00DFFFC
:102CD00000F0F6FCF44802F0ACFC0FE00A2000F033
:102CE00034FDF248006830B1012001F079F8044663
:102CF0000020EE490860F820ED49087041F23010DC
:102D00008442EBDB36E00A2000F01FFDE748006854
:102D100005282FD34FF48071E648FEF722FB0121EE
:102D2000E048FEF71EFB4FF40051E348FEF71BFBA3
:102D30000420DF4908700020DC49086001F084F8B5
:102D40000646012001F04CF80446301E01DB014626
:102D500000E04142614342F2107291FBF2F189447A
:102D600041F22A20844205DA16F1320F02DD4FF0DB
:102D7000000900E0C7E700BF0020CD49087042F21B
:102D8000107000F0E2FC4FF0000948E0012000F074
:102D9000DCFCC6480068052841D34FF48071C54863
:102DA000FEF7E1FA0121BF48FEF7DDFA4FF40051CA
:102DB000C148FEF7D6FA0520BD4908700020BB497E
:102DC000086001F041F80646012001F009F80446C8
:102DD00004FB06F042F2107190FBF1F0814441F2E5
:102DE000E64084421BDD322E19DA4F464FF00008D0
:102DF000C8464FEA19608DF840004FEA19408DF837
:102E000041004FEA19208DF8420009F0FF008DF8CB
:102E10004300082210A9A94801F0F5FE00E0B5E73B
:102E200000BF4FF48071A348FEF79DFA01219D4831
:102E3000FEF799FA4FF400519F48FEF794FA0020EC
:102E40009B490870B7E10A2000F07FFC97480068B2
:102E50000328F7D3002095490860FEF77BFD8346E1
:102E60009149584602F011FB40226946944801F00E
:102E7000B9FE9DF80000052190FBF1F00A2802DD63
:102E800000208DF800000025D3E08748406886497F
:102E90008968C1EB011100EB810105EB8500C01CC5
:102EA0001DF8002005EB8500801C1DF80000C0EB1C
:102EB000001002EB8000814269DB7B4840687A4960
:102EC0008968C1EB011100EB810105EB8500401D14
:102ED0001DF8002005EB8500001D1DF80000C0EB6B
:102EE000001002EB8000814273DA05EB8500401C84
:102EF0001DF80000FF2825D141F2E64084420BDD99
:102F0000322E09DA052E07DD0520B8FBF0F0B842B5
:102F100002D201206B4908704FF480716548FEF7BA
:102F200022FA01215F48FEF71EFA0A2000F00DFC8C
:102F30004FF400516048FEF714FA01205C49087014
:102F40006149087005EB8500401C1DF80000F0B9D0
:102F50000A20B8FBF0F0B8421AD94FF480715548F6
:102F6000FEF701FA01214F48FEF7FDF90A2000F0B3
:102F7000ECFB4FF400515048FEF7F5F900204C49A6
:102F800008700120504908700A20B8FBF0F720E0D3
:102F90004FF400514848FEF7E6F901204B4908700C
:102FA00002204349087048480078012811D1484858
:102FB00000F0CBFB0020444908704648FFF760FE54
:102FC000642000F0C2FB4448FFF75AFE642000F082
:102FD000BCFB3548406834498968C1EB011100EBFE
:102FE000810105EB8500401D1DF8002005EB8500E3
:102FF000001D1DF80000C0EB001002EB80008142B4
:1030000016D14FF480712B48FEF7ADF90121254808
:10301000FEF7A9F90A2000F098FB4FF4005126486A
:10302000FEF7A1F900202249087001202649087006
:103030006D1C9DF80000052190FBF1F0A8423FF7C0
:1030400024AF012000F0CCFE044600F0FDFE064651
:1030500004FB06F0400042F2107190FBF1F00744CF
:10306000300A1E498877CE7704EB84014800C117E7
:1030700000EB1161090A194A82F8201004EB840060
:1030800040062DE07E0019900000000000000000C6
:10309000000001000000000000000000110101FF1D
:1030A0005C00000000080140140300209002002092
:1030B0002C000020000C0140001001400001070816
:1030C00000000708C0000020BD000020BC00002058
:1030D00020A1070000440040004C004036000020C2
:1030E000000E114681F821000A2094FBF0F004B292
:1030F000B4F5E17F01DA4FF4FA74642179432422B4
:1031000091FBF2F191FBF4F0C11700EB1161090A98
:10311000684A917664207843242190FBF1F090FB7B
:10312000F4F01146C876642008FB00F02421B0FBBF
:10313000F1F0B0FBF4F0000A11460877642008FBB8
:1031400000F02421B0FBF1F0B0FBF4F01146487719
:1031500059490868C11700EB5161C91101EB8101A0
:1031600040F6AB2202EB4101090A524A82F82210D2
:1031700051490868C11700EB5161C91101EB810188
:10318000AB2202EB41014B4A82F823104FF0000AB8
:10319000032505E04748405D50441FFA80FA6D1C46
:1031A000242DF7DBCAF1FF00424981F824002522D3
:1031B000424800F01EF946E62DE9F04F87B00021A5
:1031C0000C460D46002005908246049021E03C49C3
:1031D000C989A1F5006002F053FF064600224FF0B6
:1031E000804303F095FECDE902012046294602F016
:1031F00058FFCDE90001DDE9022302F0B4FD80466D
:1032000002F0ACFF04460D46282000F09EFA0AF1B9
:10321000010ABAF57A7FDADB4FF47A72002320468E
:10322000294602F0C7FC064602F03BFF804604F048
:103230004BFBCDE9020102F078FF80B205900598C2
:1032400002F019FF4FF08B41019002F04EFD8346D2
:1032500002F09CFF06461B4A1B4B02F02BFE00228D
:103260001A4BCDE9020102F025FE804602F0A1FFD3
:103270000490049802F021FF07B0BDE8F08F3028D9
:1032800005DB392803DCA0F13001C8B210E0412889
:1032900005DB462803DCA0F13701C8B208E061284D
:1032A00005DB662803DCA0F15701C8B200E0FF206F
:1032B0007047000036000020300000200048004029
:1032C00030040020CDCCCCCCCCCC134000A2B040FC
:1032D000704700BFFEE700BFFEE700BFFEE700BF8C
:1032E000FEE770477047704710B500F05FFA10BDF9
:1032F00008B54FF4E060FDF727F825208DF80000B1
:1033000004208DF8020000208DF8010001208DF8C6
:1033100003006846FDF71DF808BD00B585B0012122
:103320008803FEF793FA01210420FEF78FFA4FF489
:103330000070ADF8100018208DF8130003208DF8F0
:10334000120004A97A48FDF75FFF4FF48060ADF8E2
:10335000100004208DF8130004A97548FDF754FFF0
:103360004FF40060ADF8100010208DF8130004A990
:103370006F48FDF749FF4FF4E13000900020ADF8B1
:103380000400ADF80600ADF80800ADF80C000C2004
:10339000ADF80A0069466748FFF7B1FAFFF7A8FFE2
:1033A000012240F225516348FFF741FB01216148AA
:1033B000FFF731FB05B000BD10B5044621465D485E
:1033C000FFF796FB00BF80215A48FFF7FFFB00285C
:1033D000F9D010BD70B504460D4629462046FFF7CA
:1033E00087FB00BF80212046FFF7F0FB0028F9D0C3
:1033F00070BD2DE9F04107460D461646002400BF7A
:10340000295D3846FFF7E6FF641CB442F8D3BDE8F7
:10341000F08170B505460E4600244FF40061444823
:10342000FDF79FFF00BF285DFFF7C6FF641CB44295
:10343000F9D3142000F0ABF94FF400613C48FDF7DC
:1034400092FF70BD70B506460C46002500BF615D59
:103450003046FFF7BFFF6D1C605D0028F7D170BDDF
:1034600010B50021344B354C24781855334A127866
:10347000921E9A5C322A16D1304A1278D21E9A5C79
:103480007E2A10D11A462D4B1B78D25C302A0AD1E5
:103490007E22294B1A7032225A7030229A70DA70CA
:1034A0000322264B1A70254A1278521C234B1A709D
:1034B0001A461278802A0DD11F4A12787E2A09D125
:1034C0001D4A5278322A05D100221A70A5221A4BC1
:1034D00083F88020194A1278802A02DD0022174BD7
:1034E0001A7010BD10B540211248FFF77CFB40F266
:1034F00025511048FFF780FB28B10E48FFF7FCFA72
:103500000446FFF7ADFF10BD0146002905DB092980
:1035100003DC01F13002D0B208E00A2905DB0F29F3
:1035200003DC01F13702D0B200E0FF207047000059
:10353000000801400038014030030020AA000020AC
:1035400008B501211020FEF781F901210820FEF7BE
:103550007DF93F20ADF8000000208DF8030069469A
:103560005A48FDF751FE0320ADF8000000208DF809
:10357000030069465648FDF747FE08BD00B591B007
:1035800001210846FEF755F901214802FEF75EF9D0
:103590005048FDF7D1F95048069050480790002058
:1035A00008900A20099000200A9080200B9040008B
:1035B0000C9080000D9020200E9000020F900020B3
:1035C000109006A94348FDF759FA01214148FDF73B
:1035D00080FA0020019001208DF808008DF8090084
:1035E0004FF460200390002004900A208DF814000E
:1035F00001A939484C38FCF73CFF4FF44040FEF736
:1036000089F805230122082133484C38FCF7C9FF0B
:1036100005230222092130484C38FCF7C2FF05235C
:1036200003220A212C484C38FCF7BBFF0523042257
:103630000B2129484C38FCF7B4FF05231A460C210E
:1036400025484C38FCF7ADFF052306220D21224802
:103650004C38FCF7A6FF052307220E211E484C38E4
:10366000FCF79FFF052308220F211B484C38FCF76D
:1036700098FF012118484C38FCF732FF0121164809
:103680004C38FCF722FF14484C38FCF740FF00BFD1
:1036900011484C38FCF740FF0028F9D10E484C384F
:1036A000FCF744FF00BF0C484C38FCF744FF0028EF
:1036B000F9D1012108484C38FCF747FF11B000BD93
:1036C00010B5FFF73DFFFFF759FF10BD0010014097
:1036D000000C0140080002404C240140300400204E
:1036E00030B537480068374AB0FBF2F1B1F1807F5E
:1036F00001D301201DE021F07F40401E4FF0E02269
:10370000506150170F22002807DA13071D0E2E4BA9
:1037100000F00F04241F1D5503E013071C0E2B4B54
:103720001C5400BF00204FF0E02290610720106180
:10373000002008B100BFFEE74FF0E020006920F054
:1037400001004FF0E021086130BD01B5204900982B
:1037500008604FF0E020006940F001004FF0E021E8
:10376000086100BF1A4800680028FBD108BD00218D
:1037700007E042F6E06100BF0A00A1F1010399B23F
:10378000FAD10200A0F1010398B2F2D170470021F2
:1037900006E0642100BF0A00A1F1010399B2FAD149
:1037A0000200A0F1010398B2F3D170470848006805
:1037B00020B107480068401E0549086070470000B6
:1037C00000000020A086010018ED00E000E400E009
:1037D000AC0000201CB501211C20FEF737F8BDF815
:1037E000040040F48F50ADF8040010208DF807005D
:1037F00003208DF8060001A91548FDF705FDBDF869
:10380000000040F48050ADF8000048208DF803001F
:1038100069460F48FDF7F8FC4FF40050ADF804007E
:1038200010208DF8070003208DF8060001A9094833
:10383000FDF7EAFC0320ADF8040010208DF8070026
:1038400003208DF8060001A90348FDF7DDFC1CBD2F
:10385000000C0140001001400008014008B54FF481
:10386000E060FCF771FD26208DF8000003208DF844
:10387000020000208DF8010001208DF80300684649
:10388000FCF767FD08BD00B585B001214804FDF7D0
:10389000EAFF01210520FDF7D9FF0420ADF8100053
:1038A00018208DF8130003208DF8120004A97D481C
:1038B000FDF7AAFC0820ADF8100004208DF81300D5
:1038C00004A97848FDF7A0FC4FF496500090002022
:1038D000ADF80400ADF80600ADF80800ADF80C0036
:1038E0000C20ADF80A0069466F48FFF708F8FFF7AB
:1038F000B5FF012240F225516B48FFF798F80121EE
:103900006948FFF788F805B000BD10B500244021D4
:103910006548FFF768F940F225516348FFF76CF9F5
:10392000002835D06048FFF7E7F8C1B25F48027859
:103930000078401C5D4B18705D4881541946097829
:10394000405C60B918460078401E5949085C7E28E2
:1039500005D10870002048700120194608705348AE
:10396000007803280DDD52488078001DC4B24F480E
:103970000078A04205D1A5204D49085500204B49AB
:1039800008704A480078632802DD00204749087023
:1039900010BD10B50021464B444C24781855434ABD
:1039A0001278921E9A5CD2B9404A1278D21E9A5C62
:1039B0007E2A14D11A463D4B1B78D25C102A0ED1B8
:1039C0007E223B4B1A7000225A70384A1278521EDF
:1039D0009A5C9A701022DA700322344B1A70344ABF
:1039E000324B1B78D25C334B1B881A44314B1A8004
:1039F0002E4A1278521C2D4B1A701A461278032A3E
:103A000004DD2B4A9278121D2B4B1A70274A12782C
:103A1000294B1B789A423CD1244A1278002A38DD7F
:103A20000022224B1A70244A1278521E204B9A5CB4
:103A3000204B1B889A1A1E4B1B78D21A1C4B5B78A2
:103A4000D21A1B4B9B78D21A1A4B1A801A4612783C
:103A5000C2F1FF02D2B21A80174A1278521E144BDA
:103A60009A5C164B1A80134A12881B889A420BD113
:103A70000F4AD278102A07D10022104B1A80A523B2
:103A80000B4A0D4C2478135500220B4B1A70094B2E
:103A90001A80064A1278632A02DD0022034B1A704C
:103AA00010BD00000008014000440040B0000020AC
:103AB00044040020B6000020B1000020B80000201F
:103AC00008B54FF4E060FCF73FFC27208DF80000BC
:103AD00001208DF8020000208DF8010001208DF8F2
:103AE00003006846FCF735FC08BD00B585B0012130
:103AF0008804FDF7B8FE01210920FDF7A7FE4FF469
:103B00008060ADF8100018208DF8130003208DF8A8
:103B1000120004A9FE48FDF777FB4FF40060ADF8F2
:103B2000100004208DF8130004A9F948FDF76CFB80
:103B30004FF4E13000900020ADF80400ADF806002D
:103B4000ADF80800ADF80C000C20ADF80A0069468D
:103B5000F048FEF7D4FEFFF7B3FF012240F22551F3
:103B6000EC48FEF764FF0121EA48FEF754FF05B078
:103B700000BD10B50446E8480078402802D1002076
:103B8000E5490870E549E44A12788C54E248007827
:103B9000801E085CD0B9E0480078C01E085C7E2812
:103BA00014D10846DC490978405C10280ED17E20EB
:103BB000DA49087000204870D7480078401E085C39
:103BC00088701020C8700320D3490870D348D249A8
:103BD0000978405CD24909880844D1490880CE4818
:103BE0000078401CCC49087008460078032804DDA2
:103BF000CA488078001DCB490870C7480078C94979
:103C0000097888423AD1C4480078002836DD00207F
:103C1000C1490870C3480078401EC049085CC049CB
:103C20000988081ABD490978401ABC494978401AE0
:103C3000BA498978401ABA49088008460078C0F124
:103C4000FF00C0B20880B7480078401EB349085C46
:103C5000B5490880B24800880988884209D1AF4830
:103C6000C078102805D10020AF4908800120AF4955
:103C700008700020AB490870A9490880AB4800785B
:103C8000012859D10020A9490870A448007F0428C0
:103C900023D1A248007900F5FA60A54948619F4800
:103CA000407908619D488079C8609C48C0798860E7
:103CB0009A48007A48609948407A0860084601F0BE
:103CC000A8FB9C49086001F088FCFDF77FFE99483D
:103CD0000068FDF748FEFDF779FE9048007F032855
:103CE0002AD18E48C07EA52826D144F6336090495B
:103CF0004861032008610120C8608848807F88608F
:103D00008648C07F486000200860084601F081FBBB
:103D1000884908608148407F421C80491D3186489F
:103D200000F071FF01F059FCFDF750FE814800687A
:103D3000FDF719FEFDF74AFE10BD10B5402175488C
:103D4000FEF751FF40F225517248FEF755FF28B1AA
:103D50007048FEF7D1FE0446FFF70BFF10BD30B5EB
:103D600089B004460D46202274A101A801F053FF3A
:103D7000012C04D11D2201A97848FFF73AFB022C3F
:103D800004D11D2201A97648FFF733FB09B030BDED
:103D900000B585B0142273A1684601F03CFF1421E0
:103DA0006846FFF736FB05B000BD10B588B0044685
:103DB000202271A1684601F02EFF8DF81B40C4F14E
:103DC0005C00C0B28DF81C001D2269466348FFF7F5
:103DD00010FB1D2269466248FFF70BFB08B010BDBF
:103DE0002DE9F84F04464FF0000BD946CA4600BFF4
:103DF0000EE0694931F8140002F03DF905464946E4
:103E000001F01BFF81460A20FFF79FFC0AF1010A1F
:103E1000BAF1640FEDDB4FF08B41484601F065FFCE
:103E2000009002F0B3F907465C4A5D4B02F042F89D
:103E3000054602F0BEF98146484602F03EF90FFA07
:103E400080FB5846BDE8F88F2DE9F04F89B000207F
:103E50000890824600BF2FE04F49088802F00BF916
:103E60004FF08B41019001F040FF834602F08EF944
:103E70004C4A4D4BCDE9020102F01CF806464B4A74
:103E80004B4B02F089F804464A4A4B4B02F00CF8BF
:103E9000CDE90601089802F079F9CDE90401DDE9E0
:103EA000062301F060FF804602F083F908900A20A3
:103EB000FFF74BFC0AF1010ABAF1640FCCDB08985A
:103EC00002F0FBF800B209B0BDE8F08F2DE9F04731
:103ED0000024A146FFF770F904B2204602F0D0F8A2
:103EE00007460022354B02F057F805462A460B4696
:103EF00033A002F013FBFFF7A7FF04461E2C74DD6E
:103F0000204602F0BDF807460022324B64E06CE028
:103F1000000C014000480040C9000020C4040020FB
:103F2000CE000020C8000020D0000020CC000020DF
:103F3000A8040020C4000020000007087E0019909B
:103F40000000000000000000FFFE00000000000074
:103F500000000000110201322C000000004400406B
:103F6000004C00407E32303032343634324530300E
:103F7000323032464433330D7E0019900000000089
:103F800000000000FFFE0100000000000000000033
:103F9000110301015B000000300400209DD7D825EB
:103FA000AA5B5140CDCCCCCCCCCC13403F355EBAD3
:103FB000490CB23FF758CBD001BB41400000244030
:103FC0000D0A2020B5E7CDF8B5E7D1B9A3BA252E63
:103FD000316600000000594001F0DEFF05462A4628
:103FE0000B4684A002F09AFA1DE00A2C06DD01209F
:103FF0008449087084A002F091FA14E014F11E0FB5
:1040000003DD85A002F08AFA0DE0204602F038F8C0
:1040100007460022844B01F0BFFF05462A460B46A7
:1040200082A002F07BFA4FF47A70FFF78EFB01203A
:10403000FFF7D6FE0446204602F022F8074600228B
:10404000794B01F0A9FF05462A460B467DA002F0F8
:1040500065FA0220FFF7C4FE04464FF47A70FFF7BA
:1040600074FB204602F00CF8074600226E4B01F06C
:1040700093FF05462A460B4677A002F04FFA6420CC
:10408000FFF763FB0320FFF7ABFE0446204601F079
:10409000F7FF07460022644B01F07EFF05462A46E3
:1040A0000B4671A002F03AFA0420FFF799FE04468D
:1040B0006420FFF74AFB204601F0E2FF074600229A
:1040C000594B01F069FF05462A460B466BA002F0EA
:1040D00025FA0520FFF784FE04466420FFF735FB30
:1040E000204601F0CDFF074600224F4B01F054FF60
:1040F00005462A460B4666A002F010FA4FF47A7085
:10410000FFF723FBBDE8F0872DE9F04F8DB00446A3
:104110000D4600200B900A900026814600BF39E032
:104120006049088801F0A7FF4FF08B41009001F033
:10413000DCFD019002F02AF807465B4A5B4B01F078
:10414000B9FE5B4A5B4BCDE9020101F025FF5A4AFB
:104150005A4BCDE9040101F0A7FECDE908010A9808
:1041600002F014F8CDE90601DDE9082301F0FBFDBA
:10417000824602F01EF80A904A49488801F07BFF07
:104180000746314601F059FD06460A20FFF7DDFAE1
:1041900009F10109B9F1640FC2DB4FF08B413046E0
:1041A00001F0A3FD099001F0F1FF0746444A454B99
:1041B00001F080FE824601F099FF05460A9801F061
:1041C0007CFF044604FB05F00B900B980DB0BDE896
:1041D000F08F70B504460D46E1B23B48FEF788FC0F
:1041E00000BF80213848FEF7F1FC0028F9D02046B6
:1041F00070BD0000B3E4B5E7B5E7C1F7A3BA252E5B
:1042000032660000C0000020B3E4B5E7B5E7C1F7AF
:10421000B9FDB5CD000000002020B5E7B3D8B4FD4E
:10422000BBFAD7B4CCAC0000000059402020B5E761
:10423000B3D8B7C5B5E7B5E7C1F7A3BA252E32663F
:10424000000000000D2020B5E7B3D8B5E7D1B9A331
:10425000BA252E32660000000D202044435F4255EF
:1042600053A3BA252E3266000D2020B3E4B5E7C66D
:10427000F7B5E7D1B9A3BA252E3266000D20204943
:104280004E56315F4443A3BA252E3266000000002B
:104290000D2020494E56325F4443A3BA252E326684
:1042A0000000000030040020CDCCCCCCCCCC13409E
:1042B0003F355EBA490CB23FF758CBD001BB414005
:1042C0009DD7D825AA5B51400048004008B54FF45F
:1042D000E060FCF739F834208DF8000002208DF8FA
:1042E000020000208DF8010001208DF803006846CF
:1042F000FCF72FF808BD00B585B00121C804FDF713
:10430000B2FA01211120FDF7A1FA4FF48060ADF857
:10431000100018208DF8130003208DF8120004A956
:104320007E48FCF771FF4FF40060ADF810000420E8
:104330008DF8130004A97948FCF766FF4FF49650F6
:1043400000900020ADF80400ADF80600ADF80800BC
:10435000ADF80C000C20ADF80A0069467048FEF775
:10436000CEFA01216E48FEF756FBFFF7AFFF0122A0
:1043700040F225516A48FEF75AFB01216848FEF7D2
:104380004AFB05B000BD10B5002440216448FEF78B
:104390002AFC40F225516248FEF72EFC002834D05A
:1043A0005F48FEF7A9FBC1B25E4802780078401C66
:1043B0005C4B18705C48815419460978405C60B9C0
:1043C00018460078401E5849085C7E2805D10870C0
:1043D00000204870012019460870524800780328D0
:1043E0000CDD51488078041D4E480078A04205D16C
:1043F000A5204D49085500204A49087049480078D1
:10440000632802DD00204749087010BD10B5002167
:10441000454B464C24781855444A1278921E9A5CB3
:10442000D2B9424A1278D21E9A5C7E2A14D11A4618
:104430003E4B1B78D25C102A0ED17E223A4B1A706A
:1044400000225A70394A1278521E9A5C9A701022D1
:10445000DA700322354B1A70334A344B1B78D25C26
:10446000334B1B881A44324B1A80304A1278521C44
:104470002E4B1A701A461278032A04DD2A4A9278C3
:10448000121D2C4B1A70294A12782A4B1B789A421B
:104490003CD1264A1278002A38DD0022234B1A70BC
:1044A000244A1278521E204B9A5C214B1B889A1A80
:1044B0001D4B1B78D21A1C4B5B78D21A1A4B9B7877
:1044C000D21A1B4B1A801A461278C2F1FF02D2B2DE
:1044D0001A80184A1278521E134B9A5C164B1A8097
:1044E000134A12881B889A420BD10F4AD278102A9D
:1044F00007D10022104B1A80A5230B4A0D4C2478BB
:10450000135500220B4B1A70094B1A80074A127878
:10451000632A02DD0022054B1A7010BD0010014015
:10452000004C0040D200002004050020D4000020F0
:10453000D8000020D3000020DA00002008B54FF496
:10454000E060FBF701FF36208DF8000000208DF8B9
:10455000010003208DF8020001208DF80300684659
:10456000FBF7F7FE08BD0EB501211020FDF77BF922
:104570002820ADF804004720ADF800006946FE4849
:10458000FDF740FB0121FC48FEF75EF901221146D0
:10459000F948FDF7AEFE0121F748FDF78FFE002137
:1045A0001020FDF760F9FFF7C9FF01211020FDF78A
:1045B0005AF90EBDF1488089C000F14909684843A5
:1045C000C013F0490860084600684043C013EE4934
:1045D0000860EC480068ED490860EA480068EC496A
:1045E0000968884203DDEB48EB49086068E0E5486C
:1045F0000068EA490968884213DDE9480068E24931
:1046000009684843C113E7480068E04A126850430C
:1046100001EBE030E449096801EB8000DE49086005
:104620004EE0D8480068E1490968884212DDE04858
:104630000068D549096848434114DE480068D34AF8
:104640001268504301EBE030DB4909680844D24965
:10465000086035E0CB480068D8490968884212DD17
:10466000D7480068C849096848434113D5480068DD
:10467000C64A1268504301EBA030D3490968084488
:10468000C54908601CE0BF480068D04909688842F5
:1046900012DDCF480068BC4909684843C112CD48C3
:1046A0000068BA4A1268504301EB2030CA490968D1
:1046B0000844B949086003E04FF47A50B6490860ED
:1046C000C6480068401CC5490860C5480068B24932
:1046D00009680844C2490860C0480068B0F5006F26
:1046E00016DB08460068C012BE490860084600682C
:1046F000002808DD08460068C0EB4011C1EB8020AF
:104700008012B84908600020B5490860B3490860C4
:1047100070472DE9F05F01219748FEF798F80028CF
:104720007ED0B1480088401CAF490880AF4800687F
:10473000401CAE4908600846006846F2A81188424D
:104740006FD9AB480068401CA9490860A9480078A7
:10475000401CA84908700020A4490860A6480078B9
:1047600058B92021A548FCF7FCFD4021A348FCF7DF
:10477000F8FD8021A148FCF7F6FD9F48007801284C
:104780000BD120219D48FCF7EEFD9C480C300068C1
:1047900080F0400099490C31086097480078022861
:1047A0000FD140219548FCF7DEFD80219348FCF7AE
:1047B000DAFD92480C30006880F020008F490C31FF
:1047C00008608D48007803280BD120218B48FCF726
:1047D000CAFD80218948FCF7C6FD40218748FCF7C7
:1047E000C0FD85480078042813D144F620607F4935
:1047F000086080218148FCF7B6FD40217F48FCF726
:10480000B2FD7E480C30006880F020007B490C31FE
:10481000086079480078052816D144F6206001E048
:10482000A7E126E07149086080217448FCF79BFDF0
:1048300020217248FCF797FD70480C30006880F02A
:1048400040006E490C3108606B48007800F0F800B9
:1048500078B120216948FCF786FD40216748FCF7C4
:1048600082FD66480C30006880F0800063490C319E
:1048700008604248C0896249088062480068098827
:104880000844604908605E490988A1F5006001F0AC
:10489000F7FB064600224FF0804302F039FB044646
:1048A0000D46594903C901F0FCFB804622462B46C0
:1048B00001F059FA824601F051FC534A03C2FFF756
:1048C00079FE5248008850B94D480088B0F5006F15
:1048D00005DD00204449088001204C4908804B48F0
:1048E000008801280ED146480088B0F5006F09DA2B
:1048F0000220464908800020454908803A4908803E
:104900004049086041480088022810D13C4800888E
:10491000B0F5006F0BDD03203C4908803248008869
:104920003B490880002030490880364908603748F4
:104930000088032818D12C48008835490988884206
:1049400012D10020284908802E4800683049098883
:10495000B0FBF1F02F49086000202A4908602C497B
:1049600008800420294908802848008804285CD150
:104970002348008827494FE0001000403004002001
:1049800014010020080100200C010020100100206B
:104990001801002000ECFFFF5C0100201C0100203A
:1049A0002C010020300100203401002020010020D3
:1049B000380100203C01002040010020240100209B
:1049C00044010020480100204C0100202801002063
:1049D00050010020540100205801002060010020F7
:1049E0006401002030000020E800002000010020C9
:1049F00090020020FA0000202C000020000C014052
:104A000004010020E0000020F0000020FC00002055
:104A1000FE000020E40000200968884205D900203B
:104A200055490880052055490880544800880528C4
:104A30000FD15348008853490968884209D20020A1
:104A40004D49088006204D49088000214E4A1160DA
:104A500051604A480088062817D1494800884949CA
:104A60000968884211D944480088484908800020D4
:104A700041490880072041490880444800884FF692
:104A8000FF7101EA4000424908803C48008807283D
:104A900027D13E480088A0F596703749098888429A
:104AA0001FDA082035490880002033490880394939
:104AB0000860344908603848007801280AD10102AA
:104AC0003648FCF74EFC01213548FCF74AFC002033
:104AD0003149087000202C4A10605060002111609C
:104AE00051602648008808283FD12348008828497B
:104AF0000988884239DB0020204908801E49088047
:104B0000244908601F4908602148028800231E4983
:104B100003C901F04FF8804601F0C3FA064602F0DF
:104B2000D3FE044601F001FB1949088008460088BD
:104B300001F0A1FA83464FF08B4101F0D6F882468E
:104B400001F024FB8046174A174B01F0B3F90646E3
:104B50000022164B01F0AEF9044601F0E6FA1449C2
:104B600008800020084A1060506001211148FDF7BC
:104B70007FFEBDE8F09F0000E8000020FC00002060
:104B800004010020E4000020F0000020FE000020CE
:104B9000F8000020E0000020BC000020000C0140D4
:104BA00000080140CDCCCCCCCCCC134000A2B0400E
:104BB00034000020001000400146088870472DE9AD
:104BC000F04105460E461746002407E036F814105B
:104BD0002846FCF742F9AD1C601C84B2BC42F5DBF0
:104BE000BDE8F08130B503460C461546002207E0CB
:104BF0001846FFF7E1FF24F812009B1C501C82B2FC
:104C0000AA42F5DB30BD2DE9F05F80468A461746A3
:104C1000B8F1006F02D33748804501D3BDE8F09F5B
:104C2000FBF7D3FFA8F1006B4FEADB26CBF3490972
:104C3000C9F58064A74200DC3C464DE04FF00061BE
:104C400001EBC6204A142C49FFF7CCFF00250BE0EE
:104C500009EB0500284931F810004FF6FF71884232
:104C600000D003E0681C85B2A542F1DB00BFA5427D
:104C70001BDA4FF0006101EBC620FBF7EBFF0025CC
:104C800008E03AF8150005EB09011B4A22F811006B
:104C9000681C85B2A542F4DB4FF0006101EBC62031
:104CA0004A141549FFF78BFF04E02246514640465F
:104CB000FFF785FFA74200D10FE0761C4FF00009F7
:104CC0000AEB440AA044381B87B2B7F5806F02DDB7
:104CD0004FF4806400E03C46B0E700BFFBF781FF83
:104CE00000BF9BE713B50446012201A92046FFF748
:104CF0008AFF1CBD000008086805002002460E2A35
:104D000070D2DFE802F086071019222B353F495395
:104D10005D67727CF748405C00F0080008B900202D
:104D200070470120FCE7F348405C00F0040008B93C
:104D30000020F5E70120F3E7EE48405C00F00200B8
:104D400008B90020ECE70120EAE7EA48405C00F0FF
:104D5000010008B90020E3E70120E1E7E54B481C2A
:104D6000185C00F0800008B90020D9E70120D7E7DF
:104D7000E04B481C185C00F0400008B90020CFE769
:104D80000120CDE7DB4B481C185C00F0200008B97F
:104D90000020C5E70120C3E7D64B481C185C00F093
:104DA000100008B90020BBE70120B9E7D14B481C2F
:104DB000185C00F0080008B90020B1E70120AFE757
:104DC000CC4B481C185C00F0040008B90020A7E791
:104DD0000120A5E7C74B481C185C00F0020010B981
:104DE00000209DE715E001209AE7C24B481C185CA3
:104DF00000F0010008B9002092E7012090E7BD4BC8
:104E0000881C185C00F0800008B9002088E70120A9
:104E100086E7002084E72DE9FF4F83B00C461F464C
:104E20006421039890FBF1F0C0B20190039890FBCD
:104E3000F1F201FB1200C5B20198132806D00198C7
:104E4000142803D0002007B0BDE8F08F0198142883
:104E500006D105F1630000EB40001FFA80F904E081
:104E6000681E00EB40001FFA80F9A24909F1020018
:104E7000085C00F0600A4FEA6A1A09F10200085C57
:104E800000F01F0BBAF1010F04D1ABF1010000F0EB
:104E9000FF0803E00BF11E0000F0FF080A2C07DA00
:104EA000601E9549095C05980844401E86B208E0DA
:104EB000A4F10A00914931F8101005980844401EE9
:104EC00086B2022C08DDE91705EB91718910A5EB7C
:104ED000810109B9701C86B246453EDBA6EB08008D
:104EE00086B20124012002900020009049460298D9
:104EF000FFF704FF10B94FF01D0A01E04FF01E0A42
:104F00007C4911F80900C11700EB11714FEA211B10
:104F10001DE0A6EB0A0086B20298401CC0B20290C7
:104F20005C4508D10098C043C0B20090009820B9F9
:104F3000601CC4B201E0601CC4B249460298FFF78D
:104F4000DDFE10B94FF01D0A01E04FF01E0A564574
:104F5000DFDA701CC0B205904FE0A8EB060000F04D
:104F6000FF081DB963251320019001E0681EC5B23A
:104F7000A9F103001FFA80F90C245E4911F8090019
:104F8000C11700EB11714FEA211BBBF1000F02D1D9
:104F90000C20029001E00D20029000200090494674
:104FA0000298FFF7ABFE10B94FF01D0A01E04FF079
:104FB0001E0A1BE0A8EB0A0000F0FF080298401E42
:104FC000C0B20290009808B9601EC4B25C4503D11B
:104FD0000098C043C0B2009049460298FFF78EFE89
:104FE00010B94FF01D0A01E04FF01E0AD045E1DC78
:104FF000AAEB0800401CC0B20590019807F8010B0D
:1050000007F8015B07F8014B0598387001201AE793
:1050100010B50A46B0F5F86F09DBA0F5F86398B251
:105020003C2390FBF3F403FB1403D9B20AE0C0F570
:10503000F86398B23C2390FBF3F403FB1403C3F131
:105040003C03D9B2117010BD10B5002305E011F872
:10505000014B00F8014B5C1CA3B29342F7DB10BD7F
:105060002DE9FC4105460E4617461C460F2224A199
:105070002046FFF7E9FF01AB3A4631462846FFF7E5
:10508000CAFE08B9BDE8FC819DF805209DF8041012
:1050900001EBC10303EB011102EB81006946FFF74D
:1050A000B7FF9DF800000A2190FBF1F201FB12000E
:1050B000174951F82080022241462046FFF7C4FFDD
:1050C0009DF800000C2190FBF1F201FB1200114948
:1050D00051F8208002224146A01CFFF7B5FF9DF841
:1050E000060001281AD102220BA1A01DFFF7ACFF78
:1050F0001EE00000147900081A7C0008247C0008D7
:10510000BCD7D7D3C4EAD5FDD4C2B3F5D2BB000017
:10511000C8010020F0010020D5FD00009DF8060028
:10512000401E8C4A52F820100222A01DFFF78CFF6F
:105130009DF807000A280EDD9DF807000A2190FB64
:10514000F1F0854951F820800222414604F10A001D
:10515000FFF77AFF05E0022280A104F10A00FFF7C1
:1051600073FF9DF80700401E0A2190FBF1F201FB3E
:105170001200784951F820800222414604F10C00C7
:10518000FFF762FF00BF7DE72DE9F04104460D46C1
:10519000B4F5FA6F03DB40F60200844202DD002022
:1051A000BDE8F0810DB10C2D01DD0020F8E7681E8F
:1051B0004006010E0F2A01DB481CC1B208464FEA27
:1051C000E17C01EB5C7C4FEAEC08A4F5FA6C0CEB9B
:1051D0004C0CC444DFF8888118F80C604FEAE17C7D
:1051E00001EB5C7C4FEAEC0CA1EBCC0C06FA0CFC5E
:1051F0000CF080075B48405C187097B1012905D01E
:105200000B2903D0122901D0152907D140F2FC70D7
:10521000844203DA1878401C187002E01878401EA7
:1052200018700120BCE72DE9F8430546884614466E
:105230001E466B46224641462846FFF7A5FF10B999
:105240000020BDE8F883A8F101004006070E0F2CEE
:1052500001DB781CC7B29DF80000844208D14248A7
:1052600050F8271005223046FFF7EEFE0120E8E750
:105270000F223EA13046FFF7E7FE9DF80000844272
:105280000BDA394850F827100422B01CFFF7DCFE77
:105290009DF80000001BC4B24DE0781C172801DD0A
:1052A0000020CEE7304A781C52F820100422B01CAF
:1052B000FFF7CAFE0F2C0ADA6B460F22414628463A
:1052C000FFF762FF9DF80000001BC4B233E0A8F1B5
:1052D00001002A4911F80090B8F1020F17D1E9171F
:1052E00005EB91718910A5EB810181B9642195FBD2
:1052F000F1F201FB125131B94FF4C87195FBF1F293
:1053000001FB125119B909F1010000F0FF0908F180
:105310000100C0B280460D2801D14FF001086B4654
:10532000012241462846FFF72FFFA9EB04009DF814
:1053300000100844C4B20A2094FBF0F03030B07280
:105340000A2094FBF0F100FB11403030F072012094
:1053500077E700002002002050020020B3F5000093
:10536000697B0008027C000868010020C0EBC1A234
:10537000B6ACBBB9D3D03F3FCCEC0000367C0008C4
:10538000F0B58DB004463022704901A800F043FC0E
:105390006069451E642195FBF1F12846EA1705EB8B
:1053A0009272C1EBA2014FF4C87295FBF2F28F1812
:1053B0006069C11700EB91718910A0EB810191B96F
:1053C0006422616991FBF2F302FB131131B992007F
:1053D000616991FBF2F302FB131121B921690229E2
:1053E00001DD012600E0002640F26D1005FB007192
:1053F0002069401E01AA52F820000844E1680844D0
:105400000644072096FBF0F100FB1160A0610DB08F
:10541000F0BD10B501460869801E0861002805DC52
:1054200008690C3008614869401E48616423486976
:1054300090FBF3F04A69D31702EB9373C0EBA30020
:105440004FF4C87492FBF4F3034440F26F140869FC
:1054500060430C2490FBF4F01844CB68034440F202
:105460006D1402FB04303A4BC01A00EB40008B680D
:1054700003EBC000C0EB00104B6803EB8000C0EBF7
:1054800000100B6803EB800010BD2DE9F0410746CA
:105490000C463048B7FBF0F6B7FBF0F100FB117893
:1054A0004FF4616098FBF0F0A0604FF4616098FBEE
:1054B000F0F100FB11803C2190FBF1F060604FF4B3
:1054C000616098FBF0F100FB11803C2190FBF1F250
:1054D00001FB1200206040F2B27509E005F0030004
:1054E00010B94FF4B77001E040F26D10361A6D1C20
:1054F00005F0030010B94FF4B77001E040F26D10F1
:10550000B042EBDD65616069C11700EB91718910F4
:10551000A0EB810111B91D200F494860012505E06C
:10552000681E0D4951F82000361A6D1C681E0A4984
:1055300051F82000B042F3DD1C2048602561701C4A
:10554000E0602046FFF71CFFBDE8F081447C0008C6
:105550008BFA0A00805101006002002008B54FF468
:10556000C060FAF7F1FE03208DF8000001208DF8ED
:10557000010000208DF8020001208DF8030068462C
:10558000FAF7E7FE08BD10B588B00446FCF71EFA2E
:1055900040F2E37006900120059009200490082055
:1055A0000390222002900020019001A8FFF731FF14
:1055B000C849086002E0C848FEF7C7F8C548006857
:1055C0000028F8D0C3480068FCF7CDF90020C14995
:1055D0000860FCF7FBF908B010BD10B501214FF0D1
:1055E000C050FCF740F90120FBF767FFFBF742F9D9
:1055F0000120FCF798F800BF4120FBF7FCFF0028D2
:10560000FAD04FF48070FCF7AAF80120FCF7ADF84F
:10561000FCF7E5F9FCF7DAF901210846FCF77AF91D
:10562000FCF7D4F947F6FF70FCF7AAF9FCF7CEF9BE
:1056300010BD10B504460420FBF751F94AF2A551FC
:1056400088420AD0FFF7C9FF2046FFF79CFF4AF2C5
:10565000A5510420FBF737F919E07B20FBF7CBFFBE
:1056600018B19EA000F05AFF06E07A20FBF7C3FFB6
:1056700010B1A3A000F052FFAAA000F04FFFFCF76A
:10568000AEF901210846FCF745F9FCF79FF9FCF754
:105690001BF910BD7CB50546002400200090019048
:1056A0001BE000BF2021A748FDF790FA0028F9D0A1
:1056B000A448FDF721FA2146641C4DF82100601E24
:1056C0005DF82000302804D3601E5DF820003928E2
:1056D00003D99DA000F022FF641E022CE1D30198A3
:1056E00030380099303901EB810100EB4104AC42C4
:1056F00005D92946A1A000F011FFFF207CBDE0B232
:10570000FCE72DE9F04704464FF0FF0AFF25FF268E
:10571000FF27A846A946A5A000F000FFB2A000F010
:10572000FDFE03E06320FFF7B5FF8246BAF1FF0FED
:10573000F8D05146B6A000F0F1FE0AF5FA606061BB
:10574000FF25BBA000F0EAFE03E00C20FFF7A2FF5C
:105750000546FF2DF9D02946BFA000F0DFFE2561E8
:10576000FF26C3A000F0DAFE03E01F20FFF792FF40
:105770000646FF2EF9D03146C6A000F0CFFEE66007
:10578000FF27CAA000F0CAFE03E01720FFF782FF40
:105790000746FF2FF9D03946CDA000F0BFFEA76025
:1057A0004FF0FF08D0A000F0B9FE03E03B20FFF768
:1057B00071FF8046B8F1FF0FF8D04146D4A000F049
:1057C000ADFEC4F804804FF0FF09D7A000F0A6FE9C
:1057D00003E03B20FFF75EFF8146B9F1FF0FF8D0F1
:1057E0004946DBA000F09AFEC4F80090BDE8F087BF
:1057F000F0B58BB005460C462E4621463046FFF7E5
:1058000044FEA06818B9606808B9206818B1D64885
:10581000006800282CD0227B217CA38A98B207AB99
:10582000FFF7F9FA9DF81F0000909DF81E309DF8D3
:105830001D209DF81C10CDA000F070FE227B217C65
:10584000A38A98B207ABFFF70BFC07A9D0A000F022
:1058500065FE227B217CA38A98B207ABFFF7E3FCAD
:1058600018B107A9CAA000F059FE0020BE4908607F
:105870006069C01E0C2190FBF1F201FB1200C949C6
:1058800051F82070DFF820C3A3695CF8233094E856
:105890000700CDE90232CDE90410D4E90310CDE9C7
:1058A00000013B462946C148626900F037FE0BB053
:1058B000F0BD04460CE0BE480068012808D1FCF7A2
:1058C00049F805462146FFF793FF0020B8490860D4
:1058D000F1E70000C4000020A08601000D0A0D0AB7
:1058E00020506F776572204F6E205265736574206B
:1058F0006F636375727265642E2E2E2E0000000099
:105900000D0A0D0A2045787465726E616C2052652F
:10591000736574206F636375727265642E2E2E2E0C
:10592000000000000D0A204E6F206E656564207433
:105930006F20636F6E666967757265205254432EDF
:105940002E2E2E00004800400A0D506C65617365D4
:1059500020656E7465722076616C6964206E756D69
:10596000626572206265747765656E203020616EB5
:10597000642039202D2D3E3A202000000A0D506C65
:105980006561736520656E7465722076616C69640B
:10599000206E756D626572206265747765656E2034
:1059A0003020616E64202564000000000D0A3D3D3A
:1059B0003D3D3D3D3D3D3D3D3D3D3D3D3D3D3D3D17
:1059C0003D3D3D3D3D3D3D54696D652053657474DD
:1059D000696E67733D3D3D3D3D3D3D3D3D3D3D3D3A
:1059E0003D3D3D3D3D3D00000D0A2020C7EBCAE492
:1059F000C8EBC4EAB7DD28506C6561736520536558
:105A000074205965617273293A20203230000000F9
:105A10000A0D2020C4EAB7DDB1BBC9E8D6C3CEAABF
:105A20003A2020323025302E32640A0D000000006A
:105A30000D0A2020C7EBCAE4C8EBD4C2B7DD28505A
:105A40006C6561736520536574204D6F6E74687367
:105A5000293A2020000000000A0D2020D4C2B7DD22
:105A6000B1BBC9E8D6C3CEAA3A202025640A0D00EE
:105A70000D0A2020C7EBCAE4C8EBC8D5C6DA285007
:105A80006C65617365205365742044617465732986
:105A90003A2020000A0D2020C8D5C6DAB1BBC9E8DB
:105AA000D6C3CEAA3A202025640A0D000D0A202074
:105AB000C7EBCAE4C8EBCAB1D6D328506C65617392
:105AC000652053657420486F757273293A20200051
:105AD0000A0D2020CAB1D6D3B1BBC9E8D6C3CEAA1D
